:100000006F00404D00000000CA000000CC0000005E
:1000100000000000000000000000000000000000E0
:1000200000000000000000000000000000000000D0
:10003000D204000000000000D20400000000000014
:10004000D2040000D2040000D2040000D204000058
:10005000D2040000D2040000D2040000D204000048
:10006000D2040000D2040000D2040000D204000038
:10007000D2040000D2040000D2040000D204000028
:10008000D2040000D2040000D2040000D204000018
:10009000D2040000D2040000D204000000000000DE
:1000A000511126C022C206C4828282441244A24058
:1000B000310182802A86014593F6150091C232955E
:1000C00085810606F5F98280000001A001A0EFF20B
:1000D0003FFD7111AE84137405FC352381473387CE
:1000E000F4000C433305F4003EC09123824713070C
:1000F00000049107E395E7FE2285AD23110175B752
:10010000B747B44837170140938747442320F74047
:1001100093070004232AF740B747014003D707811C
:100120000966420741832398E7801307C600239698
:10013000E78083D6478113071027C206C182239A1E
:10014000D7802394E78003D7C780518F2396E78019
:100150008280EFF2FFF4370700209307C700803357
:100160009C23930610086381D70C63E8F60093067E
:1001700000086389D70405450DBF9304C700130722
:1001800020086387E70C13073008E396E7FE238413
:10019000018C05472382E184B70700083707002058
:1001A0002320F700370700202322F700B72702405B
:1001B000984BA1660945558F98CB984B1367070854
:1001C00098CB5DBFB704002083D784001307C70016
:1001D0008146938484001386818493F5F60F050786
:1001E00063E88504A297C207C1839EA01307F003AA
:1001F0000145E373F7F837040020032504009385D5
:100200008184F1359A208147130707FC4207418317
:100210009AA0130404009386818463E2E7021C40E1
:10022000938707041CC019A0C12671260145A9B7F0
:100230002833B385D700B29588A1850679BF338668
:10024000F60083450604850793F7F70F0CA2F1B774
:100250001387818C1C2385EF854614A33707002064
:100260000356870093060004918E13858184FD5206
:1002700063CFD702B707002003A5070093858184C9
:10028000B935B70700201383870023100300B70692
:10029000002083A746002687014693864600937573
:1002A000F60F63EF85000145A2979CC2F1B53307B5
:1002B000F500329785072300570093F7F70F4DBFDE
:1002C000B385C70048238C2105060507E309B5FC63
:1002D0000545D9BFB717014098436D9B98C3214787
:1002E00098C3054798CB8280EFF29FDBE537B717BD
:1002F00001409C470545858B89E713054006192970
:10030000014565B3EFF2DFD937440140AA84930772
:1003100004803E8593050004CD2EB74701409387A6
:10032000078065D9A68513050480C12EBDBBEFF2F9
:100330003FD737440140930404809305000226858B
:10034000E92665DD130504806D2E1375F50FB1BB2D
:10035000EFF21FD5130520047537D13F93077005C1
:100360006316F508E9379307B00A6311F508C1373A
:10037000B70700209384C70088A02A844D3F2A94A1
:1003800088B075371374F40FA8A022951374F50F75
:10039000793F98202A94B7070020A8B01377D70F89
:1003A000930600081374F40F9387C7006315D702F0
:1003B000814439A8AD3FB70700209387C700338732
:1003C00097002A94850448A31374F40F93F4F40F50
:1003D0009833E3E1E4FEA13F631A85009D3B0947A2
:1003E0006309E50005476314E500293F7DB9014530
:1003F000EDBF13055004D5BFEFF29FCAFD240145A0
:10040000612CB707EFBE37E700E0938707083CC7CA
:1004100069B9EFF2FFC8B71602409C4E1167130787
:100420000703D98F71659CCE13050520D1396D3D29
:1004300001CD374401401304048093050002228556
:10044000E92465FD3137D5BF453F01A0EFF25FC517
:10045000371402401C403707FFFC414593E7170063
:100460001CC05C40F98F5CC01C403707F7FE7D174D
:10047000F98F1CC01C403707FCFF7D17F98F1CC08B
:100480005C4041777D17F98F5CC0B7079F001CC4A3
:10049000A1241C4C93E707021CCCB717014003A70B
:1004A0000740938607401377F7F023A0E74003A7A0
:1004B00007401367070823A0E74089479CCAB7276E
:1004C00002409843719B98C3984398C35C405CC0BA
:1004D000E9BE01A09701002093814133138181FF80
:1004E0001305C074970500209385C5B11706002039
:1004F0001306C6B163FAC5008322050023A0550088
:1005000011059105E3EAC5FE17050020130505B0A6
:100510009385C18C6377B500232005001105E36D39
:10052000B5FEB722000093820288739002308D429C
:1005300073904280970200009382C2AC93E2320033
:1005400073905230EFF09FF0970200009382A2EC7C
:100550007390123473002030B70767453727024085
:10056000938737125CC3B797EFCD9387B79A5CC375
:100570008280372702401C4B93E707081CCB828000
:10058000372702405C470545858B91E748474189FD
:10059000133515000D058280EFF29FB02A84CD3708
:1005A00085476318F50019E0154529A0D13F7D1452
:1005B000C5BF7DD8DDBCEFF2BFAE37050B00E93F0C
:1005C00091476312F502372402401C4837050B009F
:1005D00093E747001CC81C4893E707041CC86D3FFD
:1005E0001C48ED9B1CC8D1B4B7066745B72702402D
:1005F000938636123797EFCDD4C31307B79AD8C373
:10060000D4D3D8D38280B7270240984BC166558F88
:1006100098CB984BB7060800558F98CBD847058BD9
:1006200075FF984BC176FD16758F98CB8280B70702
:1006300000F8AA97116763F6E702B7270240984BC4
:10064000C166558F98CB0CC1984BB7060400558FE7
:1006500098CBD847058B75FF984BC176FD16758FE3
:1006600098CB8280B70700F8AA97116763F5E70275
:10067000B7270240984BC166558F98CBC8CB984B93
:100680001367070498CBD847058B75FF984BC17645
:10069000FD16758F98CB8280EFF29FA071112AC052
:1006A000653DB7066745B72702409386361294D753
:1006B000B796EFCD9386B69A94D7D44771767D16C8
:1006C0000245F18ED4C711676315E500D847498FFD
:1006D000D8C745351101D1BA371702401C430E0562
:1006E00093F777F05D8D08C38280371702405C5323
:1006F000B7060001D58F5CD3828093F5F51F4EA11C
:1007000082804A211375F51F82800A216D8D333551
:10071000A0008280EFF2DF9837F400E05C40AA8509
:10072000F99B5CC003D5A18C713208C82324040056
:100730001C4093E717001CC0B7F700E0D843058BB7
:0C07400075DF9843799B98C36FF03F96DB
:08074C00000000080000000895
:00000001FF
