:100000006F00A04900000000B4000000B60000002E
:1000100000000000000000000000000000000000E0
:1000200000000000000000000000000000000000D0
:100030009804000000000000980400000000000088
:100040009804000098040000980400009804000040
:100050009804000098040000980400009804000030
:100060009804000098040000980400009804000020
:100070009804000098040000980400009804000010
:100080009804000098040000980400009804000000
:10009000980400009804000098040000000000008C
:1000A000511126C022C206C4828282441244A24058
:1000B0003101828001A001A0EFF29FFE7111AE8498
:1000C000137405FC212381473387F4000C43330567
:1000D000F4003EC005238247130700049107E3950F
:1000E000E7FE228599231101C9B7B747B4483717EE
:1000F0000140938747442320F74093070004232AB5
:10010000F740B747014003D707810966420741839B
:100110002398E7801307C6002396E78083D647819C
:1001200013071027C206C182239AD7802394E78041
:1001300003D7C780518F2396E7808280EFF25FF666
:10014000370700209307C70080339C2393061008CD
:100150006381D70C63E8F600930600086389D7042F
:100160000545A1B79304C700130720086387E70C70
:1001700013073008E396E7FE2384018C05472382AA
:10018000E184B7070008370700202320F70037076E
:1001900000202322F700B7270240984BA1660945AB
:1001A000558F98CB984B1367070898CB5DBFB70462
:1001B000002083D784001307C700814693848400FE
:1001C0001386818493F5F60F050763E88504A297EB
:1001D000C207C1839EA01307F0030145E373F7F83C
:1001E000370400200325040093858184F1359A208B
:1001F0008147130707FC420741839AA013040400B8
:100200009386818463E2E7021C40938707041CC045
:1002100019A0712EA5260145A9B72833B385D700AB
:10022000B29588A1850679BF3386F600834506041A
:10023000850793F7F70F0CA2F1B71387818C1C2366
:1002400085EF854614A337070020035687009306E1
:100250000004918E13858184FD5263CFD702B707C6
:10026000002003A5070093858184B935B7070020D6
:100270001383870023100300B706002083A74600DE
:1002800026870146938646009375F60F63EF850037
:100290000145A2979CC2F1B53307F5003297850757
:1002A0002300570093F7F70F4DBFB385C7004823CE
:1002B0008C2105060507E309B5FC0545D9BFEFF21A
:1002C0003FDE37440140AA84930704803E859305AE
:1002D0000004FD2EB74701409387078065D9A685A6
:1002E00013050480F12ED1B3EFF29FDB37440140B8
:1002F00093040480930500022685D92E65DD13053D
:100300000480D9261375F50F4DB3EFF27FD9E93F7D
:10031000930770056316F508C13F9307B00A631190
:10032000F508D937B70700209384C70088A02A842E
:10033000653F2A9488B04D3F1374F40FA8A022950E
:100340001374F50F553798202A94B7070020A8B0EA
:100350001377D70F930600081374F40F9387C70021
:100360006315D702814439A84137B7070020938726
:10037000C700338797002A94850448A31374F40FA9
:1003800093F4F40F9833E3E1E4FEB93F631A850078
:10039000753309476309E50005476314E500053730
:1003A00029B30145EDBF13055004D5BFEFF25FCF70
:1003B000012601456D24B707EFBE37E700E09387BC
:1003C00007083CC7DDB1EFF2BFCDB71602409C4E27
:1003D000116713070702D98F25659CCE13050560A9
:1003E000B74401401933014493840480930500020B
:1003F0002685F92C85476315F500013F0144FDB7BB
:10040000B7C72D0005049387F76BE3F187FE793FAB
:1004100001A0EFF2FFC8371402401C403707FFFC71
:10042000414593E717001CC05C40F98F5CC01C403D
:100430003707F7FE7D17F98F1CC01C403707FCFFFC
:100440007D17F98F1CC05C4041777D17F98F5CC028
:10045000B7079F001CC4A1241C4C93E707021CCCC7
:10046000B717014003A70740938607401377F7F0BB
:1004700023A0E74003A707401367070823A0E7402E
:1004800089479CCAB72702409843719B98C39843F9
:1004900098C35C405CC011B901A097010020938112
:1004A000E136138181FF1305C06D97050020938508
:1004B00065B517060020130666B563FAC5008322EA
:1004C000050023A0550011059105E3EAC5FE1705B7
:1004D00000201305A5B39385C18C6377B500232055
:1004E00005001105E36DB5FEB72200009382028876
:1004F000739002308D427390428097020000938285
:1005000062B093E2320073905230EFF09FF09702A6
:100510000000938282EB7390123473002030B7078F
:10052000674537270240938737125CC3B797EFCDF3
:100530009387B79A5CC38280372702401C4B93E7AE
:1005400007081CCB8280372702405C470545858B16
:1005500091E748474189133515000D058280EFF278
:100560003FB42A84CD3785476318F50019E0154557
:1005700029A0D13F7D14C5BF7DD805BEEFF25FB283
:1005800037050B00E93F91476312F502372402401B
:100590001C4837050B0093E747001CC81C4893E72D
:1005A00007041CC86D3F1C48ED9B1CC8FDBCB7066A
:1005B0006745B7270240938636123797EFCDD4C3ED
:1005C0001307B79AD8C3D4D3D8D38280B7270240B1
:1005D000984BC166558F98CB984BB7060800558F3E
:1005E00098CBD847058B75FF984BC176FD16758F54
:1005F00098CB8280B70700F8AA97116763F6E702E5
:10060000B7270240984BC166558F98CB0CC1984BC9
:10061000B7060400558F98CBD847058B75FF984BCC
:10062000C176FD16758F98CB8280B70700F8AA9720
:10063000116763F5E702B7270240984BC166558FF3
:1006400098CBC8CB984B1367070498CBD847058B3A
:1006500075FF984BC176FD16758F98CB8280EFF2AF
:100660003FA471112AC0653DB7066745B727024010
:100670009386361294D7B796EFCD9386B69A94D7D1
:10068000D44771767D160245F18ED4C71167631584
:10069000E500D847498FD8C74535110139B4371718
:1006A00002401C430E0593F777F05D8D08C38280EE
:1006B000371702405C53B7060001D58F5CD38280A8
:1006C00093F5F51F4EA182804A211375F51F828094
:0C06D0000A216D8D3335A00082800000EF
:0806DC00000000080000000806
:00000001FF
